{
  "contractName": "ticketingSystem",
  "abi": [
    {
      "inputs": [],
      "payable": false,
      "stateMutability": "nonpayable",
      "type": "constructor"
    },
    {
      "constant": false,
      "inputs": [
        {
          "name": "_name",
          "type": "bytes32"
        },
        {
          "name": "_category",
          "type": "uint256"
        }
      ],
      "name": "createArtist",
      "outputs": [],
      "payable": false,
      "stateMutability": "nonpayable",
      "type": "function"
    },
    {
      "constant": false,
      "inputs": [
        {
          "name": "_id",
          "type": "uint256"
        },
        {
          "name": "_name",
          "type": "bytes32"
        },
        {
          "name": "_category",
          "type": "uint256"
        },
        {
          "name": "_owner",
          "type": "address"
        }
      ],
      "name": "modifyArtist",
      "outputs": [],
      "payable": false,
      "stateMutability": "nonpayable",
      "type": "function"
    },
    {
      "constant": false,
      "inputs": [
        {
          "name": "_name",
          "type": "bytes32"
        },
        {
          "name": "_capacity",
          "type": "uint256"
        },
        {
          "name": "_comission",
          "type": "uint256"
        }
      ],
      "name": "createVenue",
      "outputs": [],
      "payable": false,
      "stateMutability": "nonpayable",
      "type": "function"
    },
    {
      "constant": false,
      "inputs": [
        {
          "name": "_id",
          "type": "uint256"
        },
        {
          "name": "_name",
          "type": "bytes32"
        },
        {
          "name": "_capacity",
          "type": "uint256"
        },
        {
          "name": "_comission",
          "type": "uint256"
        },
        {
          "name": "_owner",
          "type": "address"
        }
      ],
      "name": "modifyVenue",
      "outputs": [],
      "payable": false,
      "stateMutability": "nonpayable",
      "type": "function"
    },
    {
      "constant": false,
      "inputs": [
        {
          "name": "_artistId",
          "type": "uint256"
        },
        {
          "name": "_venueId",
          "type": "uint256"
        },
        {
          "name": "_concertDate",
          "type": "uint256"
        },
        {
          "name": "_concertPrice",
          "type": "uint256"
        }
      ],
      "name": "createConcert",
      "outputs": [
        {
          "name": "concertNumber",
          "type": "uint256"
        }
      ],
      "payable": false,
      "stateMutability": "nonpayable",
      "type": "function"
    },
    {
      "constant": false,
      "inputs": [
        {
          "name": "_concertId",
          "type": "uint256"
        }
      ],
      "name": "validateConcert",
      "outputs": [],
      "payable": false,
      "stateMutability": "nonpayable",
      "type": "function"
    },
    {
      "constant": false,
      "inputs": [
        {
          "name": "_id",
          "type": "uint256"
        },
        {
          "name": "_owner",
          "type": "address"
        }
      ],
      "name": "emitTicket",
      "outputs": [],
      "payable": false,
      "stateMutability": "nonpayable",
      "type": "function"
    },
    {
      "constant": false,
      "inputs": [
        {
          "name": "_id",
          "type": "uint256"
        }
      ],
      "name": "useTicket",
      "outputs": [],
      "payable": false,
      "stateMutability": "nonpayable",
      "type": "function"
    },
    {
      "constant": false,
      "inputs": [
        {
          "name": "_id",
          "type": "uint256"
        }
      ],
      "name": "buyTicket",
      "outputs": [],
      "payable": true,
      "stateMutability": "payable",
      "type": "function"
    },
    {
      "constant": false,
      "inputs": [
        {
          "name": "_id",
          "type": "uint256"
        },
        {
          "name": "_client",
          "type": "address"
        }
      ],
      "name": "transferTicket",
      "outputs": [],
      "payable": false,
      "stateMutability": "nonpayable",
      "type": "function"
    },
    {
      "constant": false,
      "inputs": [
        {
          "name": "_id",
          "type": "uint256"
        },
        {
          "name": "_cashout",
          "type": "address"
        }
      ],
      "name": "cashOut",
      "outputs": [],
      "payable": false,
      "stateMutability": "nonpayable",
      "type": "function"
    }
  ],
  "bytecode": "0x608060405234801561001057600080fd5b50336000806101000a81548173ffffffffffffffffffffffffffffffffffffffff021916908373ffffffffffffffffffffffffffffffffffffffff1602179055506112a5806100606000396000f3fe6080604052600436106100af576000357c0100000000000000000000000000000000000000000000000000000000900463ffffffff16806326606448146100b4578063486ff9ae146100ef57806359cb327a1461014a578063679ebf1a1461019957806367dd74ca146101f457806388d658461461022257806390b3b0141461029b578063924052a01461030a57806392fc3b0814610365578063e03536f3146103a0578063e62e4f8d1461040d575b600080fd5b3480156100c057600080fd5b506100ed600480360360208110156100d757600080fd5b8101908080359060200190929190505050610452565b005b3480156100fb57600080fd5b506101486004803603604081101561011257600080fd5b8101908080359060200190929190803573ffffffffffffffffffffffffffffffffffffffff169060200190929190505050610555565b005b34801561015657600080fd5b506101976004803603606081101561016d57600080fd5b8101908080359060200190929190803590602001909291908035906020019092919050505061075c565b005b3480156101a557600080fd5b506101f2600480360360408110156101bc57600080fd5b8101908080359060200190929190803573ffffffffffffffffffffffffffffffffffffffff169060200190929190505050610828565b005b6102206004803603602081101561020a57600080fd5b81019080803590602001909291905050506108f3565b005b34801561022e57600080fd5b50610299600480360360a081101561024557600080fd5b8101908080359060200190929190803590602001909291908035906020019092919080359060200190929190803573ffffffffffffffffffffffffffffffffffffffff169060200190929190505050610ac6565b005b3480156102a757600080fd5b50610308600480360360808110156102be57600080fd5b81019080803590602001909291908035906020019092919080359060200190929190803573ffffffffffffffffffffffffffffffffffffffff169060200190929190505050610be5565b005b34801561031657600080fd5b506103636004803603604081101561032d57600080fd5b8101908080359060200190929190803573ffffffffffffffffffffffffffffffffffffffff169060200190929190505050610ce8565b005b34801561037157600080fd5b5061039e6004803603602081101561038857600080fd5b8101908080359060200190929190505050610e92565b005b3480156103ac57600080fd5b506103f7600480360360808110156103c357600080fd5b810190808035906020019092919080359060200190929190803590602001909291908035906020019092919050505061101a565b6040518082815260200191505060405180910390f35b34801561041957600080fd5b506104506004803603604081101561043057600080fd5b8101908080359060200190929190803590602001909291905050506111ad565b005b4260076000838152602001908152602001600020600001541115151561047757600080fd5b600860006007600084815260200190815260200160002060030154815260200190815260200160002060070160019054906101000a900460ff1615156104bc57600080fd5b600060076000838152602001908152602001600020905060008160060160026101000a81548173ffffffffffffffffffffffffffffffffffffffff021916908373ffffffffffffffffffffffffffffffffffffffff16021790555060008160060160006101000a81548160ff02191690831515021790555060008160060160016101000a81548160ff0219169083151502179055505050565b813373ffffffffffffffffffffffffffffffffffffffff166008600083815260200190815260200160002060070160029054906101000a900473ffffffffffffffffffffffffffffffffffffffff1673ffffffffffffffffffffffffffffffffffffffff161415156105c657600080fd5b6003600081548092919060010191905055506000600860008581526020019081526020016000209050600560008260010154815260200190815260200160002060020160008154809291906001019190505550806005016000815480929190600101919050555083600760006003548152602001908152602001600020600301819055508260076000600354815260200190815260200160002060060160026101000a81548173ffffffffffffffffffffffffffffffffffffffff021916908373ffffffffffffffffffffffffffffffffffffffff160217905550806001015460076000600354815260200190815260200160002060010181905550806002015460076000600354815260200190815260200160002060020181905550806003015460076000600354815260200190815260200160002060000181905550806004015460076000600354815260200190815260200160002060040181905550600160076000600354815260200190815260200160002060060160006101000a81548160ff02191690831515021790555050505050565b6002600081548092919060010191905055506080604051908101604052808481526020018381526020018281526020013373ffffffffffffffffffffffffffffffffffffffff1681525060066000600254815260200190815260200160002060008201518160000155602082015181600101556040820151816002015560608201518160030160006101000a81548173ffffffffffffffffffffffffffffffffffffffff021916908373ffffffffffffffffffffffffffffffffffffffff160217905550905050505050565b813373ffffffffffffffffffffffffffffffffffffffff166007600083815260200190815260200160002060060160029054906101000a900473ffffffffffffffffffffffffffffffffffffffff1673ffffffffffffffffffffffffffffffffffffffff1614151561089957600080fd5b816007600085815260200190815260200160002060060160026101000a81548173ffffffffffffffffffffffffffffffffffffffff021916908373ffffffffffffffffffffffffffffffffffffffff160217905550505050565b6000600860008381526020019081526020016000209050600360008154809291906001019190505550600560008260010154815260200190815260200160002060020160008154809291906001019190505550806005016000815480929190600101919050555034816006016000828254019250508190555081600760006003548152602001908152602001600020600301819055508060010154600760006003548152602001908152602001600020600101819055508060020154600760006003548152602001908152602001600020600201819055508060030154600760006003548152602001908152602001600020600001819055503460076000600354815260200190815260200160002060050181905550600160076000600354815260200190815260200160002060060160006101000a81548160ff021916908315150217905550600060076000600354815260200190815260200160002060060160016101000a81548160ff0219169083151502179055503360076000600354815260200190815260200160002060060160026101000a81548173ffffffffffffffffffffffffffffffffffffffff021916908373ffffffffffffffffffffffffffffffffffffffff1602179055505050565b843373ffffffffffffffffffffffffffffffffffffffff166006600083815260200190815260200160002060030160009054906101000a900473ffffffffffffffffffffffffffffffffffffffff1673ffffffffffffffffffffffffffffffffffffffff16141515610b3757600080fd5b846006600088815260200190815260200160002060000181905550836006600088815260200190815260200160002060010181905550826006600088815260200190815260200160002060020181905550816006600088815260200190815260200160002060030160006101000a81548173ffffffffffffffffffffffffffffffffffffffff021916908373ffffffffffffffffffffffffffffffffffffffff160217905550505050505050565b833373ffffffffffffffffffffffffffffffffffffffff166005600083815260200190815260200160002060030160009054906101000a900473ffffffffffffffffffffffffffffffffffffffff1673ffffffffffffffffffffffffffffffffffffffff16141515610c5657600080fd5b836005600087815260200190815260200160002060000181905550826005600087815260200190815260200160002060010181905550816005600087815260200190815260200160002060030160006101000a81548173ffffffffffffffffffffffffffffffffffffffff021916908373ffffffffffffffffffffffffffffffffffffffff1602179055505050505050565b813373ffffffffffffffffffffffffffffffffffffffff166008600083815260200190815260200160002060070160029054906101000a900473ffffffffffffffffffffffffffffffffffffffff1673ffffffffffffffffffffffffffffffffffffffff16141515610d5957600080fd5b60086000848152602001908152602001600020600301544210151515610d7e57600080fd5b600060086000858152602001908152602001600020905060006006600083600201548152602001908152602001600020905060006127108260020154846006015402811515610dc957fe5b04905060008184600601540390508260030160009054906101000a900473ffffffffffffffffffffffffffffffffffffffff1673ffffffffffffffffffffffffffffffffffffffff166108fc839081150290604051600060405180830381858888f19350505050158015610e41573d6000803e3d6000fd5b508573ffffffffffffffffffffffffffffffffffffffff166108fc829081150290604051600060405180830381858888f19350505050158015610e88573d6000803e3d6000fd5b5050505050505050565b42600860008381526020019081526020016000206003015410151515610eb757600080fd5b3373ffffffffffffffffffffffffffffffffffffffff16600660006008600085815260200190815260200160002060020154815260200190815260200160002060030160009054906101000a900473ffffffffffffffffffffffffffffffffffffffff1673ffffffffffffffffffffffffffffffffffffffff161415610f675760016008600083815260200190815260200160002060070160016101000a81548160ff0219169083151502179055505b3373ffffffffffffffffffffffffffffffffffffffff16600560006008600085815260200190815260200160002060010154815260200190815260200160002060030160009054906101000a900473ffffffffffffffffffffffffffffffffffffffff1673ffffffffffffffffffffffffffffffffffffffff1614156110175760016008600083815260200190815260200160002060070160006101000a81548160ff0219169083151502179055505b50565b600060046000815480929190600101919050555042831015151561103d57600080fd5b600073ffffffffffffffffffffffffffffffffffffffff166005600087815260200190815260200160002060030160009054906101000a900473ffffffffffffffffffffffffffffffffffffffff1673ffffffffffffffffffffffffffffffffffffffff16141515156110af57600080fd5b600073ffffffffffffffffffffffffffffffffffffffff166006600086815260200190815260200160002060030160009054906101000a900473ffffffffffffffffffffffffffffffffffffffff1673ffffffffffffffffffffffffffffffffffffffff161415151561112157600080fd5b82600860006004548152602001908152602001600020600301819055508460086000600454815260200190815260200160002060010181905550836008600060045481526020019081526020016000206002018190555081600860006004548152602001908152602001600020600401819055506111a0600454610e92565b6004549050949350505050565b600160008154809291906001019190505550608060405190810160405280838152602001828152602001600081526020013373ffffffffffffffffffffffffffffffffffffffff1681525060056000600154815260200190815260200160002060008201518160000155602082015181600101556040820151816002015560608201518160030160006101000a81548173ffffffffffffffffffffffffffffffffffffffff021916908373ffffffffffffffffffffffffffffffffffffffff160217905550905050505056fea165627a7a723058202e6c3c9a17f4d7b6d0c109bc247e01fef6e6a7a7a27b9200588dd6fa3e1eb3980029",
  "source": "pragma solidity ^0.5.0;\r\n\r\ncontract ticketingSystem{\r\n\t\r\n\taddress owner;\r\n\tuint CounterArtists;\r\n    uint CounterVenues;\r\n    uint CounterTickets;\r\n    uint CounterConcerts;\r\n\r\n\tstruct Artist{\r\n\t\tbytes32 name;\r\n\t\tuint category;\r\n\t\tuint totalSoldTicket;\r\n\t\taddress owner;\r\n\t}\r\n\tstruct Venue{\r\n\t\tbytes32 name;\r\n\t\tuint capacity;\r\n\t\tuint comission;\r\n\t\taddress payable owner;\r\n\t}\r\n\tstruct Ticket{\r\n\t\tuint concertDate;\r\n\t\tuint artistId;\r\n\t\tuint venueId;\r\n\t\tuint concertId;\r\n        uint price;\r\n        uint amountPaid;\r\n        bool isAvailable;\r\n        bool isAvailableForSale;\r\n        address owner;\r\n\t}\r\n\tstruct Concert{\r\n\t\tuint concertId;\r\n\t\tuint artistId;\r\n\t\tuint venueId;\r\n\t\tuint concertDate;\r\n\t\tuint concertPrice;\r\n        uint totalSoldTicket;\r\n        uint totalMoneyCollected;\r\n        bool validatedByArtist;\r\n        bool validatedByVenue;\r\n        address owner;\r\n\t}\r\n\r\n\tmapping(uint => Artist) private artistsRegister;\r\n\tmapping(uint => Venue) private venuesRegister;\r\n\tmapping(uint => Ticket) private ticketsRegister;\r\n\tmapping(uint => Concert) private concertsRegister;\r\n\r\n\tconstructor() public {\r\n\t\towner = msg.sender;\r\n\t}\r\n\r\n    modifier OwnerOfArtist(uint _id){\r\n    \trequire(artistsRegister[_id].owner == msg.sender);\r\n    \t_;\r\n    }\r\n\r\n    modifier OwnerOfVenue(uint _id){\r\n    \trequire(venuesRegister[_id].owner == msg.sender);\r\n    \t_;\r\n    }\r\n\r\n    modifier OwnerOfConcert(uint _id){\r\n    \trequire(concertsRegister[_id].owner == msg.sender);\r\n    \t_;\r\n    }\r\n\r\n    modifier OwnerOfTicket(uint _id){\r\n    \trequire(ticketsRegister[_id].owner == msg.sender);\r\n    \t_;\r\n    }\r\n\r\n\tfunction createArtist(bytes32 _name, uint _category) public{\r\n\t\tCounterArtists++;\r\n\t\tartistsRegister[CounterArtists] = Artist(_name, _category, 0, msg.sender);\r\n\t}\r\n\r\n\tfunction modifyArtist(uint _id, bytes32 _name, uint _category, address _owner) public OwnerOfArtist(_id) {\r\n\t\tartistsRegister[_id].name = _name;\r\n\t\tartistsRegister[_id].category = _category;\r\n\t\tartistsRegister[_id].owner = _owner;\r\n\t}\r\n\r\n\tfunction createVenue(bytes32 _name, uint _capacity, uint _comission) public{\r\n\t\tCounterVenues++;\r\n\t\tvenuesRegister[CounterVenues] = Venue(_name, _capacity, _comission, msg.sender);\r\n\t}\r\n\r\n\tfunction modifyVenue(uint _id, bytes32 _name, uint _capacity, uint _comission, address payable _owner) public OwnerOfVenue(_id){\r\n\t\tvenuesRegister[_id].name = _name;\r\n\t\tvenuesRegister[_id].capacity = _capacity;\r\n\t\tvenuesRegister[_id].comission = _comission;\r\n\t\tvenuesRegister[_id].owner = _owner;\r\n\t}\r\n\r\n\tfunction createConcert(uint _artistId, uint _venueId, uint _concertDate, uint _concertPrice)\r\n\t  public\r\n\t  returns (uint concertNumber)\r\n\t  {\r\n\t  \tCounterConcerts++;\r\n\t    require(_concertDate >= now);\r\n\t    require(artistsRegister[_artistId].owner != address(0));\r\n\t    require(venuesRegister[_venueId].owner != address(0));\r\n\t    concertsRegister[CounterConcerts].concertDate = _concertDate;\r\n\t    concertsRegister[CounterConcerts].artistId = _artistId;\r\n\t    concertsRegister[CounterConcerts].venueId = _venueId;\r\n\t    concertsRegister[CounterConcerts].concertPrice = _concertPrice;\r\n\t    validateConcert(CounterConcerts);\r\n\t    concertNumber = CounterConcerts;\r\n\t  }\r\n\r\n\tfunction validateConcert(uint _concertId) public {\r\n\t    require(concertsRegister[_concertId].concertDate >= now);\r\n\t    if (venuesRegister[concertsRegister[_concertId].venueId].owner == msg.sender)\r\n\t    {\r\n\t      concertsRegister[_concertId].validatedByVenue = true;\r\n\t    }\r\n\t    if (artistsRegister[concertsRegister[_concertId].artistId].owner == msg.sender)\r\n\t    {\r\n\t      concertsRegister[_concertId].validatedByArtist = true;\r\n\t    }\r\n\t  }\r\n\r\n\tfunction emitTicket(uint _id, address _owner) public OwnerOfConcert(_id) {\r\n\t\tCounterTickets++;\r\n        Concert storage thisConcert = concertsRegister[_id];\r\n        artistsRegister[thisConcert.artistId].totalSoldTicket++;\r\n        thisConcert.totalSoldTicket++;\r\n        ticketsRegister[CounterTickets].concertId = _id;\r\n        ticketsRegister[CounterTickets].owner = _owner;\r\n        ticketsRegister[CounterTickets].artistId = thisConcert.artistId;\r\n        ticketsRegister[CounterTickets].venueId = thisConcert.venueId;\r\n        ticketsRegister[CounterTickets].concertDate = thisConcert.concertDate;\r\n        ticketsRegister[CounterTickets].price = thisConcert.concertPrice;\r\n        ticketsRegister[CounterTickets].isAvailable = true;\r\n    }\r\n    \r\n    function useTicket(uint _id) public {\r\n        require(ticketsRegister[_id].concertDate <= now);\r\n        require(concertsRegister[ticketsRegister[_id].concertId].validatedByVenue);\r\n        Ticket storage thisTicket = ticketsRegister[_id];\r\n        thisTicket.owner = address(0);\r\n        thisTicket.isAvailable = false;\r\n\t\tthisTicket.isAvailableForSale = false;\r\n    }\r\n    \r\n    function buyTicket(uint _id) public payable{\r\n        Concert storage thisConcert = concertsRegister[_id];\r\n        CounterTickets++;\r\n        artistsRegister[thisConcert.artistId].totalSoldTicket++;\r\n        thisConcert.totalSoldTicket++;\r\n        thisConcert.totalMoneyCollected += msg.value;\r\n        ticketsRegister[CounterTickets].concertId = _id;\r\n        ticketsRegister[CounterTickets].artistId = thisConcert.artistId;\r\n        ticketsRegister[CounterTickets].venueId = thisConcert.venueId;\r\n        ticketsRegister[CounterTickets].concertDate = thisConcert.concertDate;\r\n        ticketsRegister[CounterTickets].amountPaid = msg.value;\r\n        ticketsRegister[CounterTickets].isAvailable = true;\r\n        ticketsRegister[CounterTickets].isAvailableForSale = false;\r\n        ticketsRegister[CounterTickets].owner = msg.sender;\r\n    }\r\n\r\n    function transferTicket(uint _id, address _client) public OwnerOfTicket(_id) {\r\n        ticketsRegister[_id].owner = _client;\r\n    }\r\n\r\n    function cashOut(uint _id, address payable _cashout) public OwnerOfConcert(_id){\r\n        require(now >= concertsRegister[_id].concertDate);\r\n        Concert storage thisConcert = concertsRegister[_id];\r\n        Venue storage thisVenue = venuesRegister[thisConcert.venueId];\r\n        uint venueShare = thisConcert.totalMoneyCollected * thisVenue.comission / 10000;\r\n        uint artistShare = thisConcert.totalMoneyCollected - venueShare;\r\n        thisVenue.owner.transfer(venueShare);\r\n        _cashout.transfer(artistShare);\r\n    }\r\n\r\n}",
  "sourcePath": "C:/Users/Leo/Documents/ESILV/A4 - MIF/S2/Blockchain programming/TD7/TD07_BOTTE_CASANOVA/contracts/ticketingSystem.sol",
  "compiler": {
    "name": "solc",
    "version": "0.5.0+commit.1d4f565a.Emscripten.clang"
  },
  "schemaVersion": "3.0.5",
  "updatedAt": "2019-03-28T22:50:35.784Z",
  "devdoc": {
    "methods": {}
  },
  "userdoc": {
    "methods": {}
  }
}